:1000000012C021C020C01FC01EC01DC01CC01BC00C
:100010001AC019C018C021C016C015C014C013C022
:1000200012C011C010C011241FBECFE5D4E0DEBF46
:10003000CDBF20E0A0E6B0E001C01D92A236B2071D
:10004000E1F71DD02FC0DCCF10BC8CE089B9599AE4
:1000500086E880BD88E98AB908951F920F920FB68D
:100060000F9211248F938CB18093610081E0809373
:1000700060008F910F900FBE0F901F901895E4DFD6
:100080007894A59AAD9A80E2909160009923E1F36B
:100090001092600090916100913311F485BBF4CF10
:0800A00015BAF2CFF894FFCF6E
:00000001FF
